:020000040800F2
:1000000000800020B118000801190008011900083B
:10001000011900080119000801190008000000007A
:1000200000000000000000000000000001190008AE
:10003000011900080000000001190008011900085A
:100040000119000801190008011900080119000828
:100050000119000801190008011900080119000818
:100060000119000801190008011900080119000808
:1000700001190008011900080119000801190008F8
:10008000011900080000000001190008011900080A
:1000900001190008011900080119000801190008D8
:1000A00001190008011900080119000801190008C8
:1000B00001190008011900080119000801190008B8
:1000C00001190008011900080119000801190008A8
:1000D0000119000801190008011900080119000898
:1000E0000119000801190008011900080119000888
:1000F000011900080119000801190008000000009A
:1001000000000000011900080000000001190008AB
:100110000119000800000000011900080119000879
:100120000119000801190008011900080119000847
:10013000011900080000000000000000011900087B
:100140000119000801190008011900080000000049
:10015000000000000000000000000000000000009F
:10016000000000000000000000000000011900086D
:1001700001190008011900080119000801190008F7
:10018000011900080000000000000000000000004D
:10019000000000000119000800000000000000003D
:1001A000000000000000000001190008011900080B
:1001B00001190008011900080119000800000000D9
:1001C000000000000119000800000000000000000D
:0801D0000119000801190008E3
:1001D80010B5054C237833B9044B13B10448AFF379
:1001E80000800123237010BD58000020000000008B
:1001F8004C19000808B5034B1BB103490348AFF37A
:10020800008008BD000000005C0000204C190008B8
:1002180080B500AF034800F083FF034800F080FF7B
:1002280000BF80BD000000200700002080B584B01A
:1002380000AF03460A46FB711346BB71BA79FB79D6
:100248001146184600F0A0FE0346FB73FB7B1846D8
:100258001037BD4680BD80B58AB000AF78607B6836
:100268001B7887F820307B685B7887F8213001237A
:1002780087F82230002387F82330002387F82430BA
:10028800002387F82530002387F826307B689B7881
:100298003B767B68DB787B760123BB760023FB7695
:1002A80000233B7700237B770023BB777B681B7990
:1002B8003B747B685B797B740023BB740023FB74FD
:1002C80000233B7500237B750023BB757B689B79F6
:1002D8003B727B68DB797B720023BB720023FB7265
:1002E80000233B7300237B730023BB7307F12003B8
:1002F800184600F015FF07F11803184600F010FF24
:1003080007F11003184600F00BFF07F10803184621
:1003180000F006FF00BF2837BD4680BD80B584B019
:1003280000AFF860B9607A603B60FB681878FB68DA
:100338005B783A7E194600F065FDBB681878BB68A3
:100348005B783A7E194600F05DFD7B6818787B681B
:100358005B783A7E194600F055FD3B6818783B6893
:100368005B783A7E194600F04DFDFB689878FB688B
:10037800DB780122194600F045FDBB689878BB6818
:10038800DB780122194600F03DFD7B6898787B6890
:10039800DB780122194600F035FD3B6898783B6808
:1003A800DB780122194600F02DFD396AF86901F061
:1003B80002F8FB689878FB68DB780022194600F0A1
:1003C80021FDBB689878BB68DB780022194600F0ED
:1003D80019FD7B6898787B68DB780022194600F065
:1003E80011FD3B6898783B68DB780022194600F0DD
:1003F80009FD396AF86900F0DEFF00BF1037BD4615
:1004080080BD80B584B000AFF860B9607A603B60A9
:10041800FB681878FB685B780022194600F0F2FC4C
:10042800BB681878BB685B780022194600F0EAFCC4
:100438007B6818787B685B780022194600F0E2FC3C
:100448003B6818783B685B780022194600F0DAFCB4
:10045800FB689878FB68DB780122194600F0D2FC2B
:10046800BB689878BB68DB780122194600F0CAFCA3
:100478007B6898787B68DB780122194600F0C2FC1B
:100488003B6898783B68DB780122194600F0BAFC93
:100498000521B86900F08FFFFB689878FB68DB7866
:1004A8000022194600F0AEFCBB689878BB68DB7880
:1004B8000022194600F0A6FC7B6898787B68DB78F8
:1004C8000022194600F09EFC3B6898783B68DB7870
:1004D8000022194600F096FC0521B86900F06BFF70
:1004E80000BF1037BD4680BD80B48BB000AFF86048
:1004F800B9607A60FB68A04A934202D19F4B7B6245
:100508000CE0FB689E4A934202D19E4B7B6205E059
:10051800FB689D4A934201D19C4B7B62FB689B69B7
:1005280043F00102FB689A6100BFFB689B6903F016
:100538000103002BF9D0FB689B6943F00202FB68BA
:100548009A61FB689B6923F48072FB689A61FB6877
:100558009B6923F40072FB689A61FB689B6923F42A
:100568000052FB689A61FB689B6923F48052FB6820
:100578009A61FB689B6923F02002FB689A61FB681B
:100588009B6923F00402FB689A610023BB61BB6985
:1005980043F0C063BB61BB6943F42063BB61BB69C3
:1005A80043F00303BB61BB6943F44033BB61FB68A1
:1005B800BA69DA61BB681B78002B08D1FB68D3F8ED
:1005C800803023F03002FB68C3F880201CE0BB6851
:1005D8001B78012B10D1FB68D3F8803023F0300250
:1005E800FB68C3F88020FB68D3F8803043F0100222
:1005F800FB68C3F8802007E0FB68D3F8803043F03D
:100608003002FB68C3F88020BB685B78002B08D1F8
:10061800FB68D3F8803023F40072FB68C3F88020AD
:1006280007E0FB68D3F8803043F40072FB68C3F836
:100638008020BB689B78002B08D1FB68D3F88030FA
:1006480023F48072FB68C3F8802007E0FB68D3F8C6
:10065800803043F48072FB68C3F88020FB68D3F8CD
:10066800803023F4F812FB68C3F88020FB68D3F8C5
:100678008030BA68D2781146BA6812790A441204EE
:100688001A43FB68C3F880207B6A3B620023FB7730
:1006980008E03B6A00221A603B6A04333B62FB7F36
:1006A8000133FB77FB7FD32BF3D90023BB770023E0
:1006B8007B7723E0BB689A687B7F9B0013441B68A9
:1006C8007B61BB689A687B7F9B0013441B681B0493
:1006D8007A6913437B617B6943F000637B617B69C3
:1006E80043F080437B61BB7F5A1CBA7719467B6A0B
:1006F8007A6943F821207B7F01337B77BB68DB78FD
:100708007A7F9A42D6D300233B7723E0BB68DA6826
:100718003B7F9B0013441B687B61BB68DA683B7FA7
:100728009B0013441B681B047A6913437B617B6934
:1007380043F080537B617B6943F080437B61BB7FDF
:100748005A1CBA7719467B6A7A6943F821203B7F9D
:1007580001333B77BB681B793A7F9A42D6D37B68D3
:100768005B78002B14D1FB68D3F8C03023F080727B
:10077800FB68C3F8C02013E00064004000A40040F8
:100788000068004000A80040006C004000AC004039
:10079800FB68D3F8C03043F08072FB68C3F8C02010
:1007A8007B681B78002B06D1FB689B6923F4804289
:1007B800FB689A6105E0FB689B6943F48042FB682B
:1007C8009A617B689B78002B06D1FB689B6923F0B4
:1007D8004002FB689A6105E0FB689B6943F04002B0
:1007E800FB689A61FB689B6923F00202FB689A61C7
:1007F800FB689B6923F00102FB689A6100BF2C37F4
:10080800BD465DF8047B704780B487B000AFF860E0
:10081800B9601346FB71FB68984A934202D1984B22
:100828007B610CE0FB68974A934202D1964B7B614F
:1008380005E0FB68954A934201D1954B7B61FB79B2
:10084800002B40F08580FB68D3F890301B0ADBB2A0
:1008580003F003033B743A7C79691346DB001344C5
:10086800DB000B44B0331B689B0FDBB203F00103C2
:10087800DAB2BB689A713A7C79691346DB00134493
:10088800DB000B44B0331B685B0FDBB203F00103E2
:10089800DAB2BB685A71BB689B79002B0ED13A7CDF
:1008A80079691346DB001344DB000B44B0331B6843
:1008B8009B0CC3F30A02BB681A600CE03A7C7969A6
:1008C8001346DB001344DB000B44B0331B6823F0F2
:1008D8006042BB681A60BB685B79002B33D13A7CF5
:1008E80079691346DB001344DB000B44B4331B68FF
:1008F8001B0CDBB203F00F03DAB2BB681A710023DA
:10090800FB741BE03A7CFB7C9B08DBB218467969D8
:100918001346DB0013445B0003442E3351F82320B5
:10092800FB7C03F00303DB00DA40FB7CD1B2BA683E
:1009380013440A46DA71FB7C0133FB74BB681B79EC
:10094800FA7C9A42DED33A7CFB68C3F894208FE0A5
:10095800FB68D3F898301B0ADBB203F003037B74FF
:100968007A7C79691346DB001344DB000B4403F5FA
:10097800C4731B689B0FDBB203F00103DAB2BB68D8
:100988009A717A7C79691346DB001344DB000B44C7
:1009980003F5C4731B685B0FDBB203F00103DAB223
:1009A800BB685A71BB689B79002B0FD17A7C796937
:1009B8001346DB001344DB000B4403F5C4731B68C8
:1009C8009B0CC3F30A02BB681A600DE07A7C796954
:1009D8001346DB001344DB000B4403F5C4731B68A8
:1009E80023F06042BB681A60BB685B79002B34D186
:1009F8007A7C79691346DB001344DB000B4403F56A
:100A0800C6731B681B0CDBB203F00F03DAB2BB68BA
:100A18001A710023BB741BE07A7CBB7C9B08DBB299
:100A2800184679691346DB0013445B0003446433BA
:100A380051F82320BB7C03F00303DB00DA40BB7CC6
:100A4800D1B2BA6813440A46DA71BB7C0133BB746D
:100A5800BB681B79BA7C9A42DED3FB68D3F89C301A
:100A68007A7C012101FA02F21A43FB68C3F89C2040
:100A780000BF1C37BD465DF8047B7047006400402A
:100A880000A400400068004000A80040006C00403E
:100A980000AC004080B485B000AF78600B46FB70B6
:100AA800FB78002B07D17B68D3F89030DBB203F0DA
:100AB8000F03FB7306E07B68D3F89830DBB203F0D2
:100AC8000F03FB73FB7B18461437BD465DF8047BA8
:100AD8007047000080B489B000AF786039607B68E7
:100AE800544A934202D1544BFB610CE07B68534A51
:100AF800934202D1524BFB6105E07B68514A934215
:100B080001D1514BFB617B68D3F8C4301B0CDBB2BD
:100B180003F00303BB730023BB613B689B79012B84
:100B280007D13B681B68BB61BB6943F08043BB616D
:100B380003E03B681B689B04BB613B685B79012B46
:100B480006D1BB6943F00053BB613B6800221A71B0
:100B5800BA7BF9691346DB001344DB000B4403F549
:100B68001E73BA691A603B681B791B04BA7B184666
:100B7800F9691346DB001344DB000B4403F51F73CC
:100B8800186000237B6100233B610023FB7324E092
:100B9800FB7B032B0FD8FB7B3A681344DB791A469F
:100BA800FB7B03F00303DB0002FA03F31A467B69BD
:100BB80013437B610EE0FB7B3A681344DB791A46EA
:100BC800FB7B03F00303DB0002FA03F31A463B69DD
:100BD80013433B61FB7B0133FB733B681B79FA7B57
:100BE8009A42D5D3BA7BF9691346DB001344DB007C
:100BF8000B4403F520737A691A60BA7BF9691346C6
:100C0800DB001344DB000B4403F521733A691A60D7
:100C18007B68D3F8CC30BA7B012101FA02F21A437F
:100C28007B68C3F8CC2000BF2437BD465DF8047B41
:100C3800704700BF0064004000A400400068004006
:100C480000A80040006C004000AC004080B485B0B3
:100C580000AF0346FB710B46BB7113467B71002343
:100C6800FB60FB79062B27D801A252F823F000BFBE
:100C7800950C00089D0C0008A30C0008A90C00089E
:100C8800AF0C0008B50C0008BB0C00084FF09043EF
:100C9800FB6012E0164BFB600FE0164BFB600CE0AC
:100CA800154BFB6009E0154BFB6006E0144BFB603D
:100CB80003E0144BFB6000E000BFFB681B68BA79D7
:100CC8005200032101FA02F2D2431A40FB681A606B
:100CD800FB681B687979BA79520001FA02F21A4363
:100CE800FB681A6000BF1437BD465DF8047B704787
:100CF8000004004800080048000C004800100048A4
:100D0800001400480018004890B484B000AF0446AE
:100D1800084611461A462346FB710346BB710B462B
:100D28007B7113463B710023FB60FB79062B27D8A8
:100D380001A252F823F000BF5D0D0008650D000800
:100D48006B0D0008710D0008770D00087D0D000877
:100D5800830D00084FF09043FB6012E0234BFB60CB
:100D68000FE0234BFB600CE0224BFB6009E0224BB9
:100D7800FB6006E0214BFB6003E0214BFB6000E0D9
:100D880000BF7B79002B0AD1FB685B68BA79012127
:100D980001FA02F2D2431A40FB685A600BE07B79F1
:100DA800012B08D1FB685B68BA79012101FA02F2CC
:100DB8001A43FB685A60FB689B68BA7952000321A2
:100DC80001FA02F2D2431A40FB689A60FB689B68FA
:100DD8003979BA79520001FA02F21A43FB689A602B
:100DE80000BF1037BD4690BC704700BF00040048E4
:100DF80000080048000C0048001000480014004893
:100E08000018004880B485B000AF0346FB710B465C
:100E1800BB7113467B710023FB60FB79062B27D837
:100E280001A252F823F000BF4D0E0008550E00082D
:100E38005B0E0008610E0008670E00086D0E0008C2
:100E4800730E00084FF09043FB6012E0194BFB60F3
:100E58000FE0194BFB600CE0184BFB6009E0184BE6
:100E6800FB6006E0174BFB6003E0174BFB6000E0FC
:100E780000BF7B79012B09D1FB685B69BA79012135
:100E880001FA02F21A43FB685A610CE07B79002BE5
:100E980009D1FB685B69BA79012101FA02F2D243F0
:100EA8001A40FB685A6100BF1437BD465DF8047BE1
:100EB800704700BF0004004800080048000C0048C4
:100EC80000100048001400480018004880B485B09D
:100ED80000AF0346FB710B46BB7113467B710023C1
:100EE800FB60FB79062B27D801A252F823F000BF3C
:100EF800150F00081D0F0008230F0008290F000810
:100F08002F0F0008350F00083B0F00084FF09043E3
:100F1800FB6012E0164BFB600FE0164BFB600CE029
:100F2800154BFB6009E0154BFB6006E0144BFB60BA
:100F380003E0144BFB6000E000BFFB68DB68BA7994
:100F48005200032101FA02F2D2431A40FB68DA6028
:100F5800FB68DB687979BA79520001FA02F21A4320
:100F6800FB68DA6000BF1437BD465DF8047B704744
:100F78000004004800080048000C00480010004821
:100F8800001400480018004880B485B000AF03463C
:100F98000A46FB711346BB710023FB60FB79062BE5
:100FA80026D801A252F823F0CD0F0008D50F00086B
:100FB800DB0F0008E10F0008E70F0008ED0F00083D
:100FC800F30F00084FF09043FB6012E0114BFB60F9
:100FD8000FE0114BFB600CE0104BFB6009E0104B7D
:100FE800FB6006E00F4BFB6003E00F4BFB6000E08B
:100FF80000BFFB681A69BB7922FA03F3DBB203F07E
:101008000103FB72FB7A18461437BD465DF8047B72
:10101800704700BF0004004800080048000C004862
:1010280000100048001400480018004880B485B03B
:1010380000AF0346FB710B46BB7113467B7100235F
:10104800FB60FB79062B27D801A252F823F000BFDA
:10105800751000087D10000883100008891000082A
:101068008F100008951000089B1000084FF090435F
:10107800FB6012E0244BFB600FE0244BFB600CE0AC
:10108800234BFB6009E0234BFB6006E0224BFB602F
:1010980003E0224BFB6000E000BFBB79072B15D8AB
:1010A800FB681B6ABA7992000F2101FA02F2D24357
:1010B8001A40FB681A62FB681B6A7979BA79920050
:1010C80001FA02F21A43FB681A6216E0FB685B6ACF
:1010D800BA79083A92000F2101FA02F2D2431A4073
:1010E800FB685A62FB685B6A7979BA79083A9200B8
:1010F80001FA02F21A43FB685A6200BF1437BD4670
:101108005DF8047B704700BF0004004800080048F1
:10111800000C00480010004800140048001800485F
:1011280080B582B000AF78607B6818787B685978A2
:101138007B689B781A46FFF789FD7B6818787B687F
:1011480059787B68DA787B681B79FFF7DDFD7B6867
:1011580018787B6859787B685B791A46FFF7B6FE82
:101168007B6818787B6859787B689B791A46FFF703
:101178005DFF00BF0837BD4680BD000080B400AFEA
:101188002A4B00221A60294B00225A60274B002262
:101198009A60264B0022DA60244B0022C3F8902084
:1011A800224B0022C3F89420204B0022C3F8982039
:1011B8001E4B1B681D4A43F4807313601B4B1B684E
:1011C8001A4A43F400731360184B1B68174A43F418
:1011D80080331360154B1B68144A43F48023136053
:1011E800124B5B68114A43F0804353600F4B9B6876
:1011F8000E4A43F0010393600C4B0C4A9B689360C2
:101208000A4B0A4A9B689360084B084A9B6893609C
:10121800064B064A9B689360044B044A9B6893609C
:1012280000BFBD465DF8047B704700BF0010024058
:1012380080B483B000AF03460A46FB711346BB7106
:10124800FB79052B50D801A252F823F06D12000843
:101258008312000899120008AF120008C51200088E
:10126800DB120008234B9B6CBA79012101FA02F2C8
:101278001146204A0B43936436E01E4BDB6CBA7967
:10128800012101FA02F211461A4A0B43D3642BE0FA
:10129800184B1B6DBA79012101FA02F21146154A61
:1012A8000B43136520E0134B9B6DBA79012101FABA
:1012B80002F211460F4A0B43936515E00D4BDB6DA7
:1012C800BA79012101FA02F211460A4A0B43D365A1
:1012D8000AE0084B1B6EBA79012101FA02F21146A5
:1012E800044A0B43136600BF00BF0C37BD465DF8C8
:1012F800047B70470010024080B483B000AF786070
:101308007B681B6843F001027B681A6000BF0C37DA
:10131800BD465DF8047B704780B483B000AF786049
:101328007B681B6823F001027B681A6000BF0C37DA
:10133800BD465DF8047B704780B483B000AF786029
:1013480039603B68DB78002B02D0012B07D00DE019
:101358007B681B6823F010027B681A6006E07B68D4
:101368001B6843F010027B681A6000BF3B681B884B
:10137800002B05D03B681B88013B1A467B689A62A4
:101388003B689B78002B08D0012B0DD17B681B682C
:1013980043F080027B681A6007E07B681B6823F0D3
:1013A80080027B681A6000E000BF00BF0C37BD46B2
:1013B8005DF8047B704780B584B000AF7860396011
:1013C8007B681B6843F010027B681A607B680F22F9
:1013D8009A627B684FF47A72DA627868FFF78CFF5A
:1013E8000023FB600FE000BF7B681B6903F001036B
:1013F800002BF9D07B681B6923F001027B681A6116
:10140800FB680133FB60FA683B689A42EBD3786863
:10141800FFF782FF00BF1037BD4680BD80B58EB094
:1014280004AF00F0D3F800F001F900F0B3F900239D
:101438007B6000233B725D4BDB795C4A127A114674
:101448001846FEF7F3FE03461A46594B1A7000F089
:1014580023FA00215748FFF71DFB0346002B05D050
:101468003B1D002219465348FFF7CEF97B68213B04
:10147800082B00F2958001A252F823F0A914000865
:10148800B51400085D150008A9150008A91500087D
:10149800A9150008A9150008A91500089D15000838
:1014A80000F0C8F9444B00221A607CE0FB7A303B1C
:1014B800FB773B7B303BBB617B7B303BFB75002381
:1014C8007B6226E0BB6902934FF080430193FB7F68
:1014D80000933A4B3A4A3B493B48FEF71FFF334BD0
:1014E800DB79324A127A11461846FEF79FFE034608
:1014F8001A462F4B1A702E4B1B78002B06D12E4BF9
:101508001A687B6AD31A2C4A136009E07B6A013394
:101518007B62FB7DC82202FB03F37A6A9A42D1DB25
:10152800FB7A012B0BD17B7B1A46C82302FB03F302
:101538001A46214B1B6813441F4A136033E01E4BA5
:101548001B687A7B1146C82201FB02F29B1A1A4AD1
:10155800136028E000233B6218E001220D210220DD
:10156800FFF750FC4FF4FA714FF08040FFF723FF6C
:1015780000220D210220FFF745FC4FF4FA714FF0CD
:101588008040FFF718FF3B6A01333B623B6A042B3C
:10159800E3DD08E07B7A012B04D100F0ABF801E031
:1015A80000BF00E000BF00237B6044E7300000205C
:1015B800540000200064004074000020280000202F
:1015C80020000020180000201000002080B500AF87
:1015D800FFF7D4FD144BD3F88830134A43F0007357
:1015E800C2F8883000210120FFF722FE01210120E6
:1015F800FFF71EFE02210120FFF71AFE002103203B
:10160800FFF716FE19210320FFF712FE064BDB6CCD
:10161800054A43F40053D364034BDB6C024A43F49A
:101628008043D36400BF80BD0010024080B58CB0F9
:1016380000AF07F1280300221A60C3F80320022331
:1016480087F828300D2387F82930012387F82A30B6
:10165800234B1B687B6207F11C0300221A60C3F846
:10166800032003233B7707F1140300221A60C3F811
:10167800032004237B750323BB7507F10C030022A9
:101688001A60C3F8032006237B730323BB733B1D37
:1016980000221A60C3F8032001233B7101237B71E8
:1016A8000323BB7107F1240319464FF08040FFF76D
:1016B80043FE0C48FEF7CFFD0B48FEF7CCFD0B4868
:1016C800FEF7C9FD0A48FEF7C6FDFEF7A1FD07F1C2
:1016D80028031846FFF724FD00BF3037BD4680BDFC
:1016E80064190008100000201800002020000020C5
:1016F8002800002080B58AB000AF234A07F11C03F8
:1017080092E8030083E80300204A07F1140392E8F3
:10171800030083E803003B1D00221A605A609A60A8
:10172800DA6029237B6008233B7200237B621FE079
:101738007B6A5B0028333B4433F80C3C1B0A9AB2A3
:101748007B6A5B00D2B228333B4403F81D2C7B6ACA
:101758005B0028333B4433F80C2C7B6A5B00013375
:10176800D2B228333B4403F81D2C7B6A01337B62D9
:101778007B6A032BDCDD3B1D19460548FFF7AAF9F8
:1017880000BF2837BD4680BD6819000870190008D9
:101798000064004080B58AB000AF07F12003002242
:1017A8001A60C3F80320012387F82030092387F83B
:1017B8002130022387F82230092387F8263007F1E1
:1017C800180300221A60C3F8032001233B7608237C
:1017D8007B760223BB760923BB770123BB750023E5
:1017E8007B7500233B7501237B710123BB710523A6
:1017F800FB7100233B720D4BFB6000233B6102230E
:101808003B7107F120031846FFF78AFC07F118031C
:101818001846FFF785FC07F114023B1D19460448DA
:10182800FEF762FE00BF2837BD4680BD400000209D
:101838000064004080B582B002AF14E04FF08043EE
:1018480000930E4B0E4A0F490F48FEF7DAFD0F4B77
:10185800DB790E4A127A11461846FEF7E7FC034672
:101868001A460B4B1A700A4B1B78012BE6D0094B12
:1018780000221A6000BFBD4680BD00BF28000020BE
:101888002000002018000020100000203000002058
:10189800540000207400002080B400AF00BFBD4693
:1018A8005DF8047B704700000D488546AFF3008063
:1018B8000C480D490D4A002302E0D458C4500433A3
:1018C800C4188C42F9D30A4A0A4C002301E0136079
:1018D8000432A242FBD300F011F8FFF79FFDFEE7A8
:1018E8000080002000000020580000208019000817
:1018F8005800002078000020FEE7000070B50D4D6C
:101908000D4C641BA4100026A64209D10B4D0C4CAB
:1019180000F018F8641BA4100026A64205D170BD7B
:1019280055F8043B98470136EEE755F8043B9847CD
:101938000136F2E7781900087819000878190008C4
:101948007C190008F8B500BFF8BC08BC9E46704773
:0C195800F8B500BFF8BC08BC9E46704704
:101964000000010130003100350037003700340039
:04197400330031000B
:04197800FD01000865
:04197C00D901000885
:10198000000F000000010001020000000100000043
:10199000010A010B00020003010C010D0004000507
:1019A000010E010F00060007000100000101010007
:1019B000000F000000010001020000000100000013
:1019C0002100000022000000230000002900000088
:0819D0000A0000000100000004
:04000005080018B126
:00000001FF
