:020000040800F2
:100000000080002045160008951600089516000887
:1000100095160008951600089516000800000000C7
:10002000000000000000000000000000951600081D
:1000300095160008000000009516000895160008A7
:1000400095160008951600089516000895160008E4
:1000500095160008951600089516000895160008D4
:1000600095160008951600089516000895160008C4
:1000700095160008951600089516000895160008B4
:100080009516000800000000951600089516000857
:100090009516000895160008951600089516000894
:1000A0009516000895160008951600089516000884
:1000B0009516000895160008951600089516000874
:1000C0009516000895160008951600089516000864
:1000D0009516000895160008951600089516000854
:1000E0009516000895160008951600089516000844
:1000F00095160008951600089516000800000000E7
:100100000000000095160008000000009516000889
:1001100095160008000000009516000895160008C6
:100120009516000895160008951600089516000803
:100130009516000800000000000000009516000859
:100140009516000895160008951600080000000096
:10015000000000000000000000000000000000009F
:1001600000000000000000000000000095160008DC
:1001700095160008951600089516000895160008B3
:1001800095160008000000000000000000000000BC
:1001900000000000951600080000000000000000AC
:1001A00000000000000000009516000895160008E9
:1001B0009516000895160008951600080000000026
:1001C000000000009516000800000000000000007C
:0801D0009516000895160008C1
:1001D80010B5054C237833B9044B13B10448AFF379
:1001E80000800123237010BD58000020000000008B
:1001F800E016000808B5034B1BB103490348AFF3E9
:10020800008008BD000000005C000020E016000827
:1002180080B500AF034800F00DFF034800F00AFF67
:1002280000BF80BD000000200700002080B584B01A
:1002380000AF03460A46FB711346BB71BA79FB79D6
:100248001146184600F0DAFD0346FB73FB7B002BD2
:100258000CBF01230023DBB218461037BD4680BD12
:1002680080B58AB000AF786007F1200300221A60D9
:10027800C3F803207B681B7887F820307B685B789D
:1002880087F82130012387F8223007F1180300226C
:100298001A60C3F803207B689B783B767B68DB7821
:1002A8007B760123BB7607F1100300221A60C3F89E
:1002B80003207B681B793B747B685B797B7407F14F
:1002C800080300221A60C3F803207B689B793B72FD
:1002D8007B68DB797B7207F12003184600F0AAFEE1
:1002E80007F11803184600F0A5FE07F11003184699
:1002F80000F0A0FE07F10803184600F09BFE00BFBF
:100308002837BD4680BD80B584B000AFF860B960BD
:100318007A603B60FB681878FB685B783A7E194620
:1003280000F0AAFCBB681878BB685B783A7E19466F
:1003380000F0A2FC7B6818787B685B783A7E1946E7
:1003480000F09AFC3B6818783B685B783A7E19465F
:1003580000F092FCFB689878FB68DB78012219466C
:1003680000F08AFCBB689878BB68DB7801221946E4
:1003780000F082FC7B6898787B68DB78012219465C
:1003880000F07AFC3B6898783B68DB7801221946D4
:1003980000F072FC396AF86900F097FFFB689878FA
:1003A800FB68DB780022194600F066FCBB68987889
:1003B800BB68DB780022194600F05EFC7B68987801
:1003C8007B68DB780022194600F056FC3B68987879
:1003D8003B68DB780022194600F04EFC396AF86960
:1003E80000F073FF00BF1037BD4680BD80B584B0F4
:1003F80000AFF860B9607A603B60FB681878FB680A
:100408005B780022194600F037FCBB681878BB6897
:100418005B780022194600F02FFC7B6818787B680F
:100428005B780022194600F027FC3B6818783B6887
:100438005B780022194600F01FFCFB689878FB687F
:10044800DB780122194600F017FCBB689878BB6876
:10045800DB780122194600F00FFC7B6898787B68EE
:10046800DB780122194600F007FC3B6898783B6866
:10047800DB780122194600F0FFFB0521B86900F07E
:1004880024FFFB689878FB68DB780022194600F0A7
:10049800F3FBBB689878BB68DB780022194600F04C
:1004A800EBFB7B6898787B68DB780022194600F0C4
:1004B800E3FB3B6898783B68DB780022194600F03C
:1004C800DBFB0521B86900F000FF00BF1037BD460F
:1004D80080BD000080B48BB000AFF860B9607A606E
:1004E800FB68A04A934202D19F4B7B620CE0FB68F9
:1004F8009E4A934202D19E4B7B6205E0FB689D4A6F
:10050800934201D19C4B7B62FB689B6943F00102DB
:10051800FB689A6100BFFB689B6903F00103002B2D
:10052800F9D0FB689B6943F00202FB689A61FB689B
:100538009B6923F48072FB689A61FB689B6923F4CA
:100548000072FB689A61FB689B6923F40052FB68A0
:100558009A61FB689B6923F48052FB689A61FB6887
:100568009B6923F02002FB689A61FB689B6923F072
:100578000402FB689A610023BB61BB6943F0C06356
:10058800BB61BB6943F42063BB61BB6943F00303F0
:10059800BB61BB6943F44033BB61FB68BA69DA618C
:1005A800BB681B78002B08D1FB68D3F8803023F098
:1005B8003002FB68C3F880201CE0BB681B78012B65
:1005C80010D1FB68D3F8803023F03002FB68C3F801
:1005D8008020FB68D3F8803043F01002FB68C3F832
:1005E800802007E0FB68D3F8803043F03002FB68D6
:1005F800C3F88020BB685B78002B08D1FB68D3F870
:10060800803023F40072FB68C3F8802007E0FB68A1
:10061800D3F8803043F40072FB68C3F88020BB68CD
:100628009B78002B08D1FB68D3F8803023F48072C4
:10063800FB68C3F8802007E0FB68D3F8803043F4F8
:100648008072FB68C3F88020FB68D3F8803023F4FD
:10065800F812FB68C3F88020FB68D3F88030BA68CA
:10066800D2781146BA6812790A4412041A43FB6810
:10067800C3F880207B6A3B620023FB7708E03B6A73
:1006880000221A603B6A04333B62FB7F0133FB772D
:10069800FB7FD32BF3D90023BB7700237B7723E0A1
:1006A800BB689A687B7F9B0013441B687B61BB68AF
:1006B8009A687B7F9B0013441B681B047A69134369
:1006C8007B617B6943F000637B617B6943F0804316
:1006D8007B61BB7F5A1CBA7719467B6A7A6943F8F3
:1006E80021207B7F01337B77BB68DB787A7F9A4256
:1006F800D6D300233B7723E0BB68DA683B7F9B00B7
:1007080013441B687B61BB68DA683B7F9B0013441A
:100718001B681B047A6913437B617B6943F0805330
:100728007B617B6943F080437B61BB7F5A1CBA774E
:1007380019467B6A7A6943F821203B7F01333B776E
:10074800BB681B793A7F9A42D6D37B685B78002BCB
:1007580014D1FB68D3F8C03023F08072FB68C3F86B
:10076800C02013E00064004000A40040006800407E
:1007780000A80040006C004000AC0040FB68D3F8C3
:10078800C03043F08072FB68C3F8C0207B681B78D8
:10079800002B06D1FB689B6923F48042FB689A61B1
:1007A80005E0FB689B6943F48042FB689A617B68BB
:1007B8009B78002B06D1FB689B6923F04002FB68FD
:1007C8009A6105E0FB689B6943F04002FB689A6107
:1007D800FB689B6923F00202FB689A61FB689B69CE
:1007E80023F00102FB689A6100BF2C37BD465DF813
:1007F800047B704780B487B000AFF860B9601346D7
:10080800FB71FB68984A934202D1984B7B610CE0DC
:10081800FB68974A934202D1964B7B6105E0FB68DF
:10082800954A934201D1954B7B61FB79002B40F0AF
:100838008580FB68D3F890301B0ADBB203F0030312
:100848003B743A7C79691346DB001344DB000B44A4
:10085800B0331B689B0FDBB203F00103DAB2BB684D
:100868009A713A7C79691346DB001344DB000B4428
:10087800B0331B685B0FDBB203F00103DAB2BB686D
:100888005A71BB689B79002B0ED13A7C7969134663
:10089800DB001344DB000B44B0331B689B0CC3F331
:1008A8000A02BB681A600CE03A7C79691346DB00DF
:1008B8001344DB000B44B0331B6823F06042BB6871
:1008C8001A60BB685B79002B33D13A7C796913468F
:1008D800DB001344DB000B44B4331B681B0CDBB296
:1008E80003F00F03DAB2BB681A710023FB741BE034
:1008F8003A7CFB7C9B08DBB2184679691346DB001F
:1009080013445B0003442E3351F82320FB7C03F08F
:100918000303DB00DA40FB7CD1B2BA6813440A4611
:10092800DA71FB7C0133FB74BB681B79FA7C9A4251
:10093800DED33A7CFB68C3F894208FE0FB68D3F8D9
:1009480098301B0ADBB203F003037B747A7C796965
:100958001346DB001344DB000B4403F5C4731B6828
:100968009B0FDBB203F00103DAB2BB689A717A7CA1
:1009780079691346DB001344DB000B4403F5C473A9
:100988001B685B0FDBB203F00103DAB2BB685A7174
:10099800BB689B79002B0FD17A7C79691346DB0001
:1009A8001344DB000B4403F5C4731B689B0CC3F3AF
:1009B8000A02BB681A600DE07A7C79691346DB008D
:1009C8001344DB000B4403F5C4731B6823F0604237
:1009D800BB681A60BB685B79002B34D17A7C796973
:1009E8001346DB001344DB000B4403F5C6731B6896
:1009F8001B0CDBB203F00F03DAB2BB681A710023D9
:100A0800BB741BE07A7CBB7C9B08DBB21846796917
:100A18001346DB0013445B000344643351F823207E
:100A2800BB7C03F00303DB00DA40BB7CD1B2BA68BD
:100A380013440A46DA71BB7C0133BB74BB681B796B
:100A4800BA7C9A42DED3FB68D3F89C307A7C0121C9
:100A580001FA02F21A43FB68C3F89C2000BF1C3756
:100A6800BD465DF8047B70470064004000A4004068
:100A78000068004000A80040006C004000AC004046
:100A880080B485B000AF78600B46FB70FB78002B14
:100A980007D17B68D3F89030DBB203F00F03FB7308
:100AA80006E07B68D3F89830DBB203F00F03FB73E2
:100AB800FB7B18461437BD465DF8047B7047000081
:100AC80080B485B000AF0346FB710B46BB7113467B
:100AD8007B710023FB60FB79062B27D801A252F813
:100AE80023F000BF090B0008110B0008170B0008C2
:100AF8001D0B0008230B0008290B00082F0B00080A
:100B08004FF09043FB6012E0164BFB600FE0164B72
:100B1800FB600CE0154BFB6009E0154BFB6006E041
:100B2800144BFB6003E0144BFB6000E000BFFB6864
:100B38001B68BA795200032101FA02F2D2431A4023
:100B4800FB681A60FB681B687979BA79520001FA68
:100B580002F21A43FB681A6000BF1437BD465DF8FD
:100B6800047B70470004004800080048000C004857
:100B780000100048001400480018004890B484B0E1
:100B880000AF0446084611461A462346FB71034641
:100B9800BB710B467B7113463B710023FB60FB79ED
:100BA800062B27D801A252F823F000BFD10B00086A
:100BB800D90B0008DF0B0008E50B0008EB0B000859
:100BC800F10B0008F70B00084FF09043FB6012E0B0
:100BD800234BFB600FE0234BFB600CE0224BFB60D8
:100BE80009E0224BFB6006E0214BFB6003E0214B50
:100BF800FB6000E000BF7B79002B0AD1FB685B68D3
:100C0800BA79012101FA02F2D2431A40FB685A600C
:100C18000BE07B79012B08D1FB685B68BA7901216D
:100C280001FA02F21A43FB685A60FB689B68BA79BA
:100C38005200032101FA02F2D2431A40FB689A607B
:100C4800FB689B683979BA79520001FA02F21A43B3
:100C5800FB689A6000BF1037BD4690BC704700BF64
:100C68000004004800080048000C00480010004834
:100C7800001400480018004880B485B000AF03464F
:100C8800FB710B46BB7113467B710023FB60FB793C
:100C9800062B27D801A252F823F000BFC10C000888
:100CA800C90C0008CF0C0008D50C0008DB0C0008A4
:100CB800E10C0008E70C00084FF09043FB6012E0DD
:100CC800194BFB600FE0194BFB600CE0184BFB6005
:100CD80009E0184BFB6006E0174BFB6003E0174B7D
:100CE800FB6000E000BF7B79012B09D1FB685B69E1
:100CF800BA79012101FA02F21A43FB685A610CE041
:100D08007B79002B09D1FB685B69BA79012101FA6B
:100D180002F2D2431A40FB685A6100BF1437BD463D
:100D28005DF8047B704700BF0004004800080048D5
:100D3800000C004800100048001400480018004843
:100D480080B485B000AF0346FB710B46BB711346F8
:100D58007B710023FB60FB79062B27D801A252F890
:100D680023F000BF890D0008910D0008970D0008B9
:100D78009D0D0008A30D0008A90D0008AF0D00087F
:100D88004FF09043FB6012E0164BFB600FE0164BF0
:100D9800FB600CE0154BFB6009E0154BFB6006E0BF
:100DA800144BFB6003E0144BFB6000E000BFFB68E2
:100DB800DB68BA795200032101FA02F2D2431A40E1
:100DC800FB68DA60FB68DB687979BA79520001FA66
:100DD80002F21A43FB68DA6000BF1437BD465DF8BB
:100DE800047B70470004004800080048000C0048D5
:100DF80000100048001400480018004880B485B06E
:100E080000AF03460A46FB711346BB710023FB6023
:100E1800FB79062B26D801A252F823F0410E0008D0
:100E2800490E00084F0E0008550E00085B0E00081A
:100E3800610E0008670E00084FF09043FB6012E057
:100E4800114BFB600FE0114BFB600CE0104BFB609B
:100E580009E0104BFB6006E00F4BFB6003E00F4B13
:100E6800FB6000E000BFFB681A69BB7922FA03F354
:100E7800DBB203F00103FB72FB7A18461437BD4658
:100E88005DF8047B704700BF000400480008004874
:100E9800000C0048001000480014004800180048E2
:100EA80080B485B000AF03460A46FB711346BB7198
:100EB8000023FB60FB79062B26D801A252F823F009
:100EC800E50E0008ED0E0008F30E0008F90E000804
:100ED800FF0E0008050F00080B0F00084FF09043A5
:100EE800FB6012E0104BFB600FE0104BFB600CE066
:100EF8000F4BFB6009E00F4BFB6006E00E4BFB60FD
:100F080003E00E4BFB6000E000BFFB685B69BA7949
:100F1800012101FA02F25A40FB685A6100BF1437F6
:100F2800BD465DF8047B704700040048000800488F
:100F3800000C004800100048001400480018004841
:100F480080B485B000AF0346FB710B46BB711346F6
:100F58007B710023FB60FB79062B27D801A252F88E
:100F680023F000BF890F0008910F0008970F0008B1
:100F78009D0F0008A30F0008A90F0008AF0F000875
:100F88004FF09043FB6012E0244BFB600FE0244BD2
:100F9800FB600CE0234BFB6009E0234BFB6006E0A1
:100FA800224BFB6003E0224BFB6000E000BFBB79F3
:100FB800072B15D8FB681B6ABA7992000F2101FA32
:100FC80002F2D2431A40FB681A62FB681B6A7979FD
:100FD800BA79920001FA02F21A43FB681A6216E023
:100FE800FB685B6ABA79083A92000F2101FA02F2AB
:100FF800D2431A40FB685A62FB685B6A7979BA790E
:10100800083A920001FA02F21A43FB685A6200BFDA
:101018001437BD465DF8047B704700BF00040048E4
:1010280000080048000C0048001000480014004860
:101038000018004880B582B000AF78607B681878E7
:101048007B6859787B689B781A46FFF739FD7B687F
:1010580018787B6859787B68DA787B681B79FFF7A2
:101068008DFD7B6818787B6859787B685B791A46B0
:10107800FFF766FE7B6818787B6859787B689B79F0
:101088001A46FFF75DFF00BF0837BD4680BD000068
:1010980080B400AF2A4B00221A60294B00225A6004
:1010A800274B00229A60264B0022DA60244B00224C
:1010B800C3F89020224B0022C3F89420204B002232
:1010C800C3F898201E4B1B681D4A43F480731360B5
:1010D8001B4B1B681A4A43F400731360184B1B68B8
:1010E800174A43F480331360154B1B68144A43F4C2
:1010F80080231360124B5B68114A43F080435360AE
:101108000F4B9B680E4A43F0010393600C4B0C4A4B
:101118009B6893600A4B0A4A9B689360084B084A8D
:101128009B689360064B064A9B689360044B044A8D
:101138009B68936000BFBD465DF8047B704700BFA5
:101148000010024080B483B000AF03460A46FB712A
:101158001346BB71FB79052B50D801A252F823F036
:101168008111000897110008AD110008C31100088B
:10117800D9110008EF110008234B9B6CBA790121A3
:1011880001FA02F21146204A0B43936436E01E4BE3
:10119800DB6CBA79012101FA02F211461A4A0B43B3
:1011A800D3642BE0184B1B6DBA79012101FA02F2C6
:1011B8001146154A0B43136520E0134B9B6DBA7912
:1011C800012101FA02F211460F4A0B43936515E01B
:1011D8000D4BDB6DBA79012101FA02F211460A4A78
:1011E8000B43D3650AE0084B1B6EBA79012101FA5B
:1011F80002F21146044A0B43136600BF00BF0C37C6
:10120800BD465DF8047B70470010024080B483B08F
:1012180000AF78607B681B6843F001027B681A6046
:1012280000BF0C37BD465DF8047B704780B483B0BF
:1012380000AF78607B681B6823F001027B681A6046
:1012480000BF0C37BD465DF8047B704780B483B09F
:1012580000AF786039603B68DB78002B02D0012B47
:1012680007D00DE07B681B6823F010027B681A60CA
:1012780006E07B681B6843F010027B681A6000BFB9
:101288003B681B88002B05D03B681B88013B1A462E
:101298007B689A623B689B78002B08D0012B0DD1A4
:1012A8007B681B6843F080027B681A6007E07B68F4
:1012B8001B6823F080027B681A6000E000BF00BF53
:1012C8000C37BD465DF8047B704780B584B000AF2D
:1012D800786039607B681B6843F010027B681A608D
:1012E8007B680F229A627B684FF47A72DA627868B8
:1012F800FFF78CFF0023FB600FE000BF7B681B69D2
:1013080003F00103002BF9D07B681B6923F001026D
:101318007B681A61FB680133FB60FA683B689A4294
:10132800EBD37868FFF782FF00BF1037BD4680BD5A
:1013380080B58AB004AF00F099F800F0BBF800F06F
:10134800F3F800233B6000233B71414B1B78404A74
:10135800527811461846FEF769FF03461A463D4B78
:101368001A7000F063F900213B48FFF789FB034638
:10137800002B05D03B46002219463748FFF73AFABA
:101388003B68013B082B5FD801A252F823F000BF4D
:10139800BD130008C3130008F71300085114000810
:1013A8005114000851140008511400085114000881
:1013B8003B14000800F008F947E000237B610FE0C8
:1013C800052302934FF08043019301230093234B9D
:1013D800234A24492448FEF796FF7B6901337B6141
:1013E8007B69B3F5487FEBDB03233B602DE00023EB
:1013F8003B6118E001220D210220FFF73DFC4FF46C
:10140800FA714FF08040FFF760FF00220D210220A3
:10141800FFF732FC4FF4FA714FF08040FFF755FFA9
:101428003B6901333B613B69042BE3DD02233B60ED
:101438000BE00D210220FFF733FD4FF4FA714FF056
:101448008040FFF742FF00E000BF00233B607CE7DD
:1014580030000020540000200064004028000020D4
:1014680020000020180000201000002080B500AFE8
:10147800FFF70EFE0E4BD3F888300D4A43F0007389
:10148800C2F8883000210120FFF75CFE012101200D
:10149800FFF758FE02210120FFF754FE0021032028
:1014A800FFF750FE19210320FFF74CFE00BF80BD57
:1014B8000010024080B584B000AF07F10803002295
:1014C8001A60C3F8032002233B720D237B720123A9
:1014D800BB72104B1B687B603B1D19464FF0804068
:1014E800FFF7B4FE0C48FEF7BBFE0C48FEF7B8FE4B
:1014F8000B48FEF7B5FE0B48FEF7B2FEFEF788FE76
:1015080007F108031846FFF795FD00BF1037BD46E1
:1015180080BD00BFF8160008100000201800002049
:10152800200000202800002080B58AB000AF07F115
:10153800200300221A60C3F80320012387F8203013
:10154800092387F82130022387F82230092387F8F6
:10155800263007F1180300221A60C3F8032001237C
:101568003B7608237B760223BB760923BB770123CE
:10157800BB7500237B7500233B7501237B71012319
:10158800BB710523FB7100233B720D4BFB600023ED
:101598003B6102233B7107F120031846FFF74AFD20
:1015A80007F118031846FFF745FD07F114023B1D24
:1015B80019460448FEF78EFF00BF2837BD4680BD98
:1015C800400000200064004080B582B002AF14E003
:1015D8004FF0804300930E4B0E4A0F490F48FEF719
:1015E80005FF0F4B1B780E4A527811461846FEF736
:1015F8001DFE03461A460B4B1A700A4B1B78002B2C
:10160800E6D1094B00221A6000BFBD4680BD00BF6D
:1016180028000020200000201800002010000020D2
:1016280030000020540000207400002080B400AF77
:1016380000BFBD465DF8047B704700000D48854635
:10164800AFF300800C480D490D4A002302E0D4583E
:10165800C4500433C4188C42F9D30A4A0A4C0023F4
:1016680001E013600432A242FBD300F011F8FFF747
:101678005FFEFEE7008000200000002058000020E8
:10168800041700085800002078000020FEE700003A
:1016980070B50D4D0D4C641BA4100026A64209D14F
:1016A8000B4D0C4C00F018F8641BA4100026A64241
:1016B80005D170BD55F8043B98470136EEE755F85B
:1016C800043B98470136F2E7FC160008FC160008B0
:1016D800FC16000800170008F8B500BFF8BC08BCE5
:1016E8009E467047F8B500BFF8BC08BC9E467047D8
:0416F80000000101EC
:0416FC00FD010008E4
:04170000D901000803
:10170400000F0000000000010200000000000000C3
:10171400010A010B00020003010C010D0004000585
:10172400010F010E00060007000100000101010085
:10173400000F000000000001020000000000000093
:101744000100000002000000030000000900000086
:081754000A0000000100000082
:040000050800164594
:00000001FF
